8=FIX.4.2|9=150|35=D|49=CLIENT2|56=BROKER2|34=1|52=20240115-09:30:00.000|11=ORD00000001|55=GOOGL|54=1|38=8462|44=117.14|40=2|59=3|10=161|
8=FIX.4.2|9=150|35=D|49=CLIENT1|56=BROKER1|34=2|52=20240115-09:33:54.000|11=ORD00000002|55=AAPL|54=1|38=5140|44=22.30|40=1|59=1|10=015|
8=FIX.4.2|9=200|35=8|49=CLIENT1|56=BROKER2|34=3|52=20240115-09:37:48.000|11=ORD00000001|37=ORD00000002|17=EXEC00000003|55=JPM|54=1|38=2569|44=149.28|14=2081|151=488|39=1|150=1|6=0|10=156|
8=FIX.4.2|9=200|35=8|49=CLIENT1|56=BROKER1|34=4|52=20240115-09:41:42.000|11=ORD00000003|37=ORD00000001|17=EXEC00000004|55=NVDA|54=2|38=1280|44=332.13|14=1280|151=0|39=2|150=2|6=0|10=077|
8=FIX.4.2|9=200|35=8|49=CLIENT1|56=BROKER2|34=5|52=20240115-09:45:36.000|11=ORD00000003|37=ORD00000004|17=EXEC00000005|55=GS|54=1|38=3862|44=227.91|14=1351|151=2511|39=1|150=1|6=0|10=113|
8=FIX.4.2|9=200|35=8|49=CLIENT3|56=BROKER1|34=6|52=20240115-09:49:30.000|11=ORD00000006|37=ORD00000005|17=EXEC00000006|55=AMZN|54=2|38=8996|44=84.99|14=7439|151=1557|39=4|150=4|6=0|10=021|
8=FIX.4.2|9=200|35=8|49=CLIENT2|56=BROKER1|34=7|52=20240115-09:53:24.000|11=ORD00000005|37=ORD00000005|17=EXEC00000007|55=AMZN|54=2|38=7860|44=298.00|14=7783|151=77|39=1|150=1|6=0|10=197|
8=FIX.4.2|9=150|35=D|49=CLIENT3|56=BROKER1|34=8|52=20240115-09:57:18.000|11=ORD00000008|55=TSLA|54=2|38=4750|44=272.62|40=2|59=1|10=125|
8=FIX.4.2|9=150|35=D|49=CLIENT2|56=BROKER2|34=9|52=20240115-10:01:12.000|11=ORD00000009|55=TSLA|54=2|38=9613|44=246.88|40=2|59=3|10=116|
8=FIX.4.2|9=150|35=D|49=CLIENT2|56=BROKER2|34=10|52=20240115-10:05:06.000|11=ORD00000010|55=NVDA|54=1|38=2666|44=127.95|40=2|59=3|10=140|
8=FIX.4.2|9=150|35=D|49=CLIENT1|56=BROKER1|34=11|52=20240115-10:09:00.000|11=ORD00000011|55=MSFT|54=2|38=4662|44=361.04|40=1|59=3|10=143|
8=FIX.4.2|9=200|35=8|49=CLIENT2|56=BROKER2|34=12|52=20240115-10:12:54.000|11=ORD00000001|37=ORD00000009|17=EXEC00000012|55=TSLA|54=2|38=5766|44=156.68|14=5766|151=0|39=2|150=2|6=0|10=175|
8=FIX.4.2|9=200|35=8|49=CLIENT2|56=BROKER2|34=13|52=20240115-10:16:48.000|11=ORD00000001|37=ORD00000012|17=EXEC00000013|55=BAC|54=1|38=1034|44=130.96|14=51|151=983|39=4|150=4|6=0|10=050|
8=FIX.4.2|9=150|35=D|49=CLIENT3|56=BROKER1|34=14|52=20240115-10:20:42.000|11=ORD00000014|55=BAC|54=1|38=8738|44=124.76|40=1|59=1|10=045|
8=FIX.4.2|9=120|35=F|49=CLIENT1|56=BROKER2|34=15|52=20240115-10:24:36.000|41=ORD00000014|11=CXLORD000015|55=MSFT|54=1|10=192|
8=FIX.4.2|9=120|35=F|49=CLIENT3|56=BROKER1|34=16|52=20240115-10:28:30.000|41=ORD00000012|11=CXLORD000016|55=AAPL|54=1|10=163|
8=FIX.4.2|9=160|35=G|49=CLIENT2|56=BROKER1|34=17|52=20240115-10:32:24.000|41=ORD00000012|11=REPLORD00017|55=MSFT|54=2|38=4190|44=68.70|40=2|10=069|
8=FIX.4.2|9=150|35=D|49=CLIENT3|56=BROKER2|34=18|52=20240115-10:36:18.000|11=ORD00000018|55=GS|54=2|38=7745|44=189.88|40=1|59=0|10=031|
8=FIX.4.2|9=200|35=8|49=CLIENT3|56=BROKER1|34=19|52=20240115-10:40:12.000|11=ORD00000011|37=ORD00000012|17=EXEC00000019|55=AMZN|54=1|38=4772|44=392.50|14=1722|151=3050|39=1|150=1|6=0|10=051|
8=FIX.4.2|9=200|35=8|49=CLIENT3|56=BROKER1|34=20|52=20240115-10:44:06.000|11=ORD00000012|37=ORD00000014|17=EXEC00000020|55=META|54=2|38=9568|44=101.66|14=8016|151=1552|39=0|150=0|6=0|10=040|
8=FIX.4.2|9=200|35=8|49=CLIENT1|56=BROKER2|34=21|52=20240115-10:48:00.000|11=ORD00000007|37=ORD00000020|17=EXEC00000021|55=GS|54=2|38=9769|44=489.49|14=9769|151=0|39=2|150=2|6=0|10=041|
8=FIX.4.2|9=200|35=8|49=CLIENT2|56=BROKER2|34=22|52=20240115-10:51:54.000|11=ORD00000012|37=ORD00000002|17=EXEC00000022|55=GS|54=1|38=494|44=339.39|14=494|151=0|39=2|150=2|6=0|10=167|
8=FIX.4.2|9=200|35=8|49=CLIENT3|56=BROKER2|34=23|52=20240115-10:55:48.000|11=ORD00000016|37=ORD00000019|17=EXEC00000023|55=META|54=2|38=1918|44=322.07|14=820|151=1098|39=1|150=1|6=0|10=009|
8=FIX.4.2|9=160|35=G|49=CLIENT3|56=BROKER1|34=24|52=20240115-10:59:42.000|41=ORD00000004|11=REPLORD00024|55=GS|54=2|38=6472|44=111.65|40=2|10=218|
8=FIX.4.2|9=120|35=F|49=CLIENT3|56=BROKER2|34=25|52=20240115-11:03:36.000|41=ORD00000003|11=CXLORD000025|55=GS|54=2|10=033|
8=FIX.4.2|9=150|35=D|49=CLIENT2|56=BROKER1|34=26|52=20240115-11:07:30.000|11=ORD00000026|55=TSLA|54=2|38=5051|44=338.81|40=1|59=3|10=154|
8=FIX.4.2|9=200|35=8|49=CLIENT1|56=BROKER2|34=27|52=20240115-11:11:24.000|11=ORD00000017|37=ORD00000005|17=EXEC00000027|55=BAC|54=1|38=4401|44=68.41|14=1634|151=2767|39=0|150=0|6=0|10=157|
8=FIX.4.2|9=200|35=8|49=CLIENT3|56=BROKER2|34=28|52=20240115-11:15:18.000|11=ORD00000007|37=ORD00000009|17=EXEC00000028|55=META|54=1|38=1106|44=248.44|14=335|151=771|39=1|150=1|6=0|10=214|
8=FIX.4.2|9=160|35=G|49=CLIENT1|56=BROKER2|34=29|52=20240115-11:19:12.000|41=ORD00000013|11=REPLORD00029|55=AAPL|54=2|38=5460|44=407.33|40=2|10=096|
8=FIX.4.2|9=110|35=9|49=CLIENT1|56=BROKER2|34=30|52=20240115-11:23:06.000|41=ORD00000009|11=CXLORD000030|39=4|102=6|10=216|
8=FIX.4.2|9=60|35=0|49=CLIENT2|56=BROKER2|34=31|52=20240115-11:27:00.000|10=050|
8=FIX.4.2|9=200|35=8|49=CLIENT1|56=BROKER1|34=32|52=20240115-11:30:54.000|11=ORD00000012|37=ORD00000005|17=EXEC00000032|55=NVDA|54=1|38=4293|44=49.88|14=887|151=3406|39=1|150=1|6=0|10=219|
8=FIX.4.2|9=150|35=D|49=CLIENT2|56=BROKER2|34=33|52=20240115-11:34:48.000|11=ORD00000033|55=JPM|54=2|38=8896|44=181.83|40=1|59=3|10=101|
8=FIX.4.2|9=200|35=8|49=CLIENT3|56=BROKER1|34=34|52=20240115-11:38:42.000|11=ORD00000020|37=ORD00000028|17=EXEC00000034|55=NVDA|54=2|38=7607|44=139.91|14=1080|151=6527|39=4|150=4|6=0|10=070|
8=FIX.4.2|9=120|35=F|49=CLIENT2|56=BROKER2|34=35|52=20240115-11:42:36.000|41=ORD00000001|11=CXLORD000035|55=AMZN|54=2|10=191|
8=FIX.4.2|9=150|35=D|49=CLIENT3|56=BROKER1|34=36|52=20240115-11:46:30.000|11=ORD00000036|55=GS|54=2|38=7893|44=278.40|40=1|59=0|10=017|
8=FIX.4.2|9=150|35=D|49=CLIENT3|56=BROKER2|34=37|52=20240115-11:50:24.000|11=ORD00000037|55=GS|54=2|38=5242|44=417.78|40=2|59=3|10=014|
8=FIX.4.2|9=150|35=D|49=CLIENT3|56=BROKER2|34=38|52=20240115-11:54:18.000|11=ORD00000038|55=NVDA|54=1|38=6394|44=357.60|40=2|59=3|10=168|
8=FIX.4.2|9=200|35=8|49=CLIENT3|56=BROKER2|34=39|52=20240115-11:58:12.000|11=ORD00000022|37=ORD00000035|17=EXEC00000039|55=GS|54=1|38=421|44=395.06|14=421|151=0|39=2|150=2|6=0|10=169|
8=FIX.4.2|9=150|35=D|49=CLIENT1|56=BROKER1|34=40|52=20240115-12:02:06.000|11=ORD00000040|55=AMZN|54=1|38=408|44=92.58|40=1|59=1|10=049|
8=FIX.4.2|9=60|35=0|49=CLIENT3|56=BROKER2|34=41|52=20240115-12:06:00.000|10=050|
8=FIX.4.2|9=150|35=D|49=CLIENT3|56=BROKER2|34=42|52=20240115-12:09:54.000|11=ORD00000042|55=TSLA|54=2|38=4502|44=246.81|40=2|59=3|10=160|
8=FIX.4.2|9=200|35=8|49=CLIENT2|56=BROKER1|34=43|52=20240115-12:13:48.000|11=ORD00000020|37=ORD00000033|17=EXEC00000043|55=TSLA|54=2|38=9981|44=33.92|14=1950|151=8031|39=1|150=1|6=0|10=021|
8=FIX.4.2|9=200|35=8|49=CLIENT1|56=BROKER2|34=44|52=20240115-12:17:42.000|11=ORD00000034|37=ORD00000011|17=EXEC00000044|55=META|54=2|38=2631|44=139.77|14=21|151=2610|39=0|150=0|6=0|10=195|
8=FIX.4.2|9=160|35=G|49=CLIENT2|56=BROKER2|34=45|52=20240115-12:21:36.000|41=ORD00000044|11=REPLORD00045|55=NVDA|54=2|38=4874|44=206.87|40=2|10=122|
8=FIX.4.2|9=200|35=8|49=CLIENT1|56=BROKER2|34=46|52=20240115-12:25:30.000|11=ORD00000009|37=ORD00000027|17=EXEC00000046|55=GOOGL|54=2|38=7734|44=125.63|14=7734|151=0|39=2|150=2|6=0|10=249|
8=FIX.4.2|9=150|35=D|49=CLIENT3|56=BROKER1|34=47|52=20240115-12:29:24.000|11=ORD00000047|55=AMZN|54=2|38=7689|44=446.62|40=2|59=1|10=188|
8=FIX.4.2|9=160|35=G|49=CLIENT2|56=BROKER1|34=48|52=20240115-12:33:18.000|41=ORD00000003|11=REPLORD00048|55=BAC|54=1|38=7672|44=19.34|40=2|10=226|
8=FIX.4.2|9=200|35=8|49=CLIENT1|56=BROKER2|34=49|52=20240115-12:37:12.000|11=ORD00000006|37=ORD00000031|17=EXEC00000049|55=GS|54=1|38=5670|44=470.49|14=4026|151=1644|39=1|150=1|6=0|10=179|
8=FIX.4.2|9=200|35=8|49=CLIENT1|56=BROKER1|34=50|52=20240115-12:41:06.000|11=ORD00000032|37=ORD00000024|17=EXEC00000050|55=GOOGL|54=2|38=5687|44=180.61|14=4021|151=1666|39=0|150=0|6=0|10=125|
8=FIX.4.2|9=120|35=F|49=CLIENT3|56=BROKER2|34=51|52=20240115-12:45:00.000|41=ORD00000035|11=CXLORD000051|55=NVDA|54=2|10=177|
8=FIX.4.2|9=150|35=D|49=CLIENT2|56=BROKER1|34=52|52=20240115-12:48:54.000|11=ORD00000052|55=META|54=2|38=6910|44=376.81|40=2|59=3|10=159|
8=FIX.4.2|9=150|35=D|49=CLIENT3|56=BROKER1|34=53|52=20240115-12:52:48.000|11=ORD00000053|55=AAPL|54=2|38=3458|44=296.96|40=1|59=1|10=159|
8=FIX.4.2|9=160|35=G|49=CLIENT3|56=BROKER2|34=54|52=20240115-12:56:42.000|41=ORD00000049|11=REPLORD00054|55=NVDA|54=2|38=8278|44=84.70|40=2|10=083|
8=FIX.4.2|9=150|35=D|49=CLIENT1|56=BROKER1|34=55|52=20240115-13:00:36.000|11=ORD00000055|55=TSLA|54=2|38=520|44=138.84|40=2|59=0|10=105|
8=FIX.4.2|9=150|35=D|49=CLIENT3|56=BROKER1|34=56|52=20240115-13:04:30.000|11=ORD00000056|55=AAPL|54=2|38=6066|44=266.76|40=1|59=0|10=146|
8=FIX.4.2|9=110|35=9|49=CLIENT3|56=BROKER2|34=57|52=20240115-13:08:24.000|41=ORD00000023|11=CXLORD000057|39=4|102=6|10=237|
8=FIX.4.2|9=200|35=8|49=CLIENT2|56=BROKER1|34=58|52=20240115-13:12:18.000|11=ORD00000045|37=ORD00000018|17=EXEC00000058|55=META|54=2|38=9819|44=17.76|14=9819|151=0|39=2|150=2|6=0|10=145|
8=FIX.4.2|9=200|35=8|49=CLIENT2|56=BROKER1|34=59|52=20240115-13:16:12.000|11=ORD00000040|37=ORD00000050|17=EXEC00000059|55=AMZN|54=1|38=5598|44=415.78|14=742|151=4856|39=4|150=4|6=0|10=055|
8=FIX.4.2|9=120|35=F|49=CLIENT1|56=BROKER2|34=60|52=20240115-13:20:06.000|41=ORD00000052|11=CXLORD000060|55=META|54=1|10=171|
8=FIX.4.2|9=120|35=F|49=CLIENT1|56=BROKER1|34=61|52=20240115-13:24:00.000|41=ORD00000049|11=CXLORD000061|55=NVDA|54=1|10=178|
8=FIX.4.2|9=150|35=D|49=CLIENT1|56=BROKER1|34=62|52=20240115-13:27:54.000|11=ORD00000062|55=MSFT|54=2|38=6368|44=105.48|40=1|59=3|10=176|
8=FIX.4.2|9=120|35=F|49=CLIENT3|56=BROKER2|34=63|52=20240115-13:31:48.000|41=ORD00000038|11=CXLORD000063|55=NVDA|54=2|10=194|
8=FIX.4.2|9=120|35=F|49=CLIENT2|56=BROKER2|34=64|52=20240115-13:35:42.000|41=ORD00000007|11=CXLORD000064|55=TSLA|54=1|10=199|
8=FIX.4.2|9=200|35=8|49=CLIENT1|56=BROKER2|34=65|52=20240115-13:39:36.000|11=ORD00000036|37=ORD00000053|17=EXEC00000065|55=TSLA|54=2|38=8741|44=433.56|14=8741|151=0|39=2|150=2|6=0|10=196|
8=FIX.4.2|9=200|35=8|49=CLIENT2|56=BROKER2|34=66|52=20240115-13:43:30.000|11=ORD00000031|37=ORD00000034|17=EXEC00000066|55=GS|54=2|38=1363|44=324.47|14=1363|151=0|39=2|150=2|6=0|10=013|
8=FIX.4.2|9=150|35=D|49=CLIENT3|56=BROKER1|34=67|52=20240115-13:47:24.000|11=ORD00000067|55=GOOGL|54=2|38=8666|44=300.41|40=1|59=3|10=242|
8=FIX.4.2|9=60|35=0|49=CLIENT1|56=BROKER1|34=68|52=20240115-13:51:18.000|10=066|
8=FIX.4.2|9=200|35=8|49=CLIENT2|56=BROKER1|34=69|52=20240115-13:55:12.000|11=ORD00000035|37=ORD00000034|17=EXEC00000069|55=BAC|54=1|38=5518|44=377.30|14=2116|151=3402|39=1|150=1|6=0|10=222|
8=FIX.4.2|9=110|35=9|49=CLIENT3|56=BROKER1|34=70|52=20240115-13:59:06.000|41=ORD00000034|11=CXLORD000070|39=4|102=6|10=234|
8=FIX.4.2|9=150|35=D|49=CLIENT1|56=BROKER2|34=71|52=20240115-14:03:00.000|11=ORD00000071|55=NVDA|54=2|38=9702|44=107.78|40=2|59=3|10=147|
8=FIX.4.2|9=200|35=8|49=CLIENT2|56=BROKER2|34=72|52=20240115-14:06:54.000|11=ORD00000072|37=ORD00000033|17=EXEC00000072|55=AMZN|54=1|38=4920|44=55.35|14=369|151=4551|39=4|150=4|6=0|10=244|
8=FIX.4.2|9=200|35=8|49=CLIENT2|56=BROKER1|34=73|52=20240115-14:10:48.000|11=ORD00000030|37=ORD00000037|17=EXEC00000073|55=TSLA|54=2|38=2891|44=392.57|14=1597|151=1294|39=0|150=0|6=0|10=090|
8=FIX.4.2|9=200|35=8|49=CLIENT3|56=BROKER1|34=74|52=20240115-14:14:42.000|11=ORD00000051|37=ORD00000042|17=EXEC00000074|55=GS|54=1|38=5510|44=347.44|14=2156|151=3354|39=0|150=0|6=0|10=169|
8=FIX.4.2|9=200|35=8|49=CLIENT1|56=BROKER1|34=75|52=20240115-14:18:36.000|11=ORD00000059|37=ORD00000048|17=EXEC00000075|55=BAC|54=2|38=2887|44=484.72|14=2887|151=0|39=2|150=2|6=0|10=108|
8=FIX.4.2|9=150|35=D|49=CLIENT3|56=BROKER1|34=76|52=20240115-14:22:30.000|11=ORD00000076|55=AMZN|54=2|38=1821|44=17.93|40=2|59=0|10=115|
8=FIX.4.2|9=160|35=G|49=CLIENT2|56=BROKER2|34=77|52=20240115-14:26:24.000|41=ORD00000015|11=REPLORD00077|55=JPM|54=1|38=217|44=320.97|40=2|10=004|
8=FIX.4.2|9=60|35=0|49=CLIENT1|56=BROKER1|34=78|52=20240115-14:30:18.000|10=065|
8=FIX.4.2|9=200|35=8|49=CLIENT3|56=BROKER2|34=79|52=20240115-14:34:12.000|11=ORD00000069|37=ORD00000042|17=EXEC00000079|55=MSFT|54=2|38=1123|44=212.88|14=114|151=1009|39=0|150=0|6=0|10=027|
8=FIX.4.2|9=150|35=D|49=CLIENT2|56=BROKER1|34=80|52=20240115-14:38:06.000|11=ORD00000080|55=AMZN|54=2|38=2091|44=66.59|40=2|59=0|10=120|
8=FIX.4.2|9=120|35=F|49=CLIENT2|56=BROKER2|34=81|52=20240115-14:42:00.000|41=ORD00000021|11=CXLORD000081|55=TSLA|54=2|10=187|
8=FIX.4.2|9=120|35=F|49=CLIENT2|56=BROKER1|34=82|52=20240115-14:45:54.000|41=ORD00000054|11=CXLORD000082|55=GS|54=2|10=052|
8=FIX.4.2|9=160|35=G|49=CLIENT1|56=BROKER1|34=83|52=20240115-14:49:48.000|41=ORD00000054|11=REPLORD00083|55=GS|54=2|38=3490|44=472.30|40=2|10=239|
8=FIX.4.2|9=110|35=9|49=CLIENT1|56=BROKER1|34=84|52=20240115-14:53:42.000|41=ORD00000073|11=CXLORD000084|39=4|102=2|10=236|
8=FIX.4.2|9=120|35=F|49=CLIENT2|56=BROKER1|34=85|52=20240115-14:57:36.000|41=ORD00000062|11=CXLORD000085|55=BAC|54=2|10=104|
8=FIX.4.2|9=150|35=D|49=CLIENT3|56=BROKER2|34=86|52=20240115-15:01:30.000|11=ORD00000086|55=JPM|54=1|38=6239|44=43.28|40=1|59=0|10=040|
8=FIX.4.2|9=200|35=8|49=CLIENT1|56=BROKER1|34=87|52=20240115-15:05:24.000|11=ORD00000001|37=ORD00000018|17=EXEC00000087|55=META|54=2|38=9532|44=166.11|14=9532|151=0|39=2|150=2|6=0|10=167|
8=FIX.4.2|9=150|35=D|49=CLIENT2|56=BROKER2|34=88|52=20240115-15:09:18.000|11=ORD00000088|55=AAPL|54=1|38=7124|44=124.98|40=1|59=3|10=164|
8=FIX.4.2|9=160|35=G|49=CLIENT3|56=BROKER2|34=89|52=20240115-15:13:12.000|41=ORD00000054|11=REPLORD00089|55=MSFT|54=1|38=1479|44=85.65|40=2|10=105|
8=FIX.4.2|9=60|35=0|49=CLIENT1|56=BROKER2|34=90|52=20240115-15:17:06.000|10=063|
8=FIX.4.2|9=110|35=9|49=CLIENT3|56=BROKER2|34=91|52=20240115-15:21:00.000|41=ORD00000081|11=CXLORD000091|39=4|102=1|10=223|
8=FIX.4.2|9=150|35=D|49=CLIENT3|56=BROKER2|34=92|52=20240115-15:24:54.000|11=ORD00000092|55=BAC|54=1|38=4693|44=272.91|40=1|59=1|10=067|
8=FIX.4.2|9=160|35=G|49=CLIENT2|56=BROKER1|34=93|52=20240115-15:28:48.000|41=ORD00000030|11=REPLORD00093|55=NVDA|54=2|38=7137|44=390.01|40=2|10=120|
8=FIX.4.2|9=60|35=0|49=CLIENT3|56=BROKER2|34=94|52=20240115-15:32:42.000|10=066|
8=FIX.4.2|9=160|35=G|49=CLIENT1|56=BROKER1|34=95|52=20240115-15:36:36.000|41=ORD00000089|11=REPLORD00095|55=AMZN|54=2|38=333|44=398.62|40=2|10=104|
8=FIX.4.2|9=150|35=D|49=CLIENT2|56=BROKER1|34=96|52=20240115-15:40:30.000|11=ORD00000096|55=AAPL|54=1|38=6835|44=225.56|40=2|59=0|10=152|
8=FIX.4.2|9=150|35=D|49=CLIENT3|56=BROKER1|34=97|52=20240115-15:44:24.000|11=ORD00000097|55=JPM|54=1|38=6389|44=345.21|40=1|59=1|10=106|
8=FIX.4.2|9=120|35=F|49=CLIENT2|56=BROKER2|34=98|52=20240115-15:48:18.000|41=ORD00000033|11=CXLORD000098|55=MSFT|54=2|10=228|
8=FIX.4.2|9=200|35=8|49=CLIENT2|56=BROKER1|34=99|52=20240115-15:52:12.000|11=ORD00000035|37=ORD00000008|17=EXEC00000099|55=BAC|54=1|38=5445|44=29.06|14=5445|151=0|39=2|150=2|6=0|10=033|
8=FIX.4.2|9=120|35=F|49=CLIENT3|56=BROKER1|34=100|52=20240115-15:56:06.000|41=ORD00000085|11=CXLORD000100|55=MSFT|54=1|10=246|
